:03000000020614E1
:0C061400787FE4F6D8FD75812102065BBA
:10037A004B65792852312C433129206973207072D8
:10038A0065737365640A004B65792852312C4332D0
:10039A002920697320707265737365640A004B655E
:1003AA00792852312C43332920697320707265737E
:1003BA007365640A004B65792852312C433429202D
:1003CA00697320707265737365640A004B657928D6
:1003DA0052322C4331292069732070726573736518
:1003EA00640A004B65792852322C433229206973FA
:1003FA0020707265737365640A004B6579285232FE
:10040A002C43332920697320707265737365640AFB
:10041A00004B65792852322C4334292069732070A5
:10042A007265737365640A004B65792852332C43ED
:10043A00312920697320707265737365640A004BF1
:10044A0065792852332C43322920697320707265EA
:10045A00737365640A004B65792852332C43332938
:10046A0020697320707265737365640A004B65793D
:10047A002852342C433129206973207072657373B2
:10048A0065640A004B65792852342C433229206965
:10049A007320707265737365640A004B657928521C
:1004AA00342C433329206973207072657373656431
:1004BA000A004B65792852342C4334292069732069
:0904CA00707265737365640A0029
:03079C00011CFF3E
:0F00030075985075CBFF75CADC75C834D2992239
:03001800000022C3
:09079200E4FF1200180FBF04F986
:01079B00223B
:06001200120792020792A2
:04077400AD07AC061B
:10077800D3ED9400EC94004010E4FE1200120EBE7B
:090788000AF9ED1D70EA1C80E77E
:010791002245
:10075200120003758910758DD8758BF075884075F8
:10076200A888751CFFE51CF460FB1204D3751CFFFE
:0207720080F312
:03001B000206A03A
:1006A000C0E0C0F0C083C082C0D075D000C000C020
:1006B00001C002C003C004C005C006C007C2AFC26B
:1006C0008E758DD8758BF0D28E1206EB8F1CD2AF43
:1006D000D007D006D005D004D003D002D001D0007E
:0B06E000D0D0D082D083D0F0D0E03228
:1006EB0075900FE590540FFFBF0F037FFF2275909E
:1006FB00F0E59054F0FB4FFA7F0A7E0012077475F9
:10070B00900FE590540FFFBF0F037FFF227590F002
:0F071B00E59054F02FFFB50204EFF4FF227FFFAB
:01072A0022AC
:1004D300E51C120586050C11052C12054C14056448
:1004E30018051421053422055424056C28051C41E4
:1004F300053C42055C440574480524810544820596
:100503002484057C88000005857BFF7A03797A8043
:100513006E7BFF7A03799180667BFF7A0379A880EB
:100523005E7BFF7A0379BF80567BFF7A0379D6809F
:100533004E7BFF7A0379ED80467BFF7A0479048052
:100543003E7BFF7A04791B80367BFF7A0479328005
:100553002E7BFF7A04794980267BFF7A04796080B9
:100563001E7BFF7A04797780167BFF7A04798E806D
:100573000E7BFF7A0479A580067BFF7A0479BC128F
:03058300008022D3
:10062000020752E493A3F8E493A34003F68001F297
:1006300008DFF48029E493A3F85407240CC8C333DB
:10064000C4540F4420C8834004F456800146F6DFAA
:10065000E4800B010204081020408090079CE47E97
:10066000019360BCA3FF543F30E509541FFEE4939F
:10067000A360010ECF54C025E060A840B8E493A366
:10068000FAE493A3F8E493A3C8C582C8CAC583CA91
:10069000F0A3C8C582C8CAC583CADFE9DEE780BE49
:01079F000059
:10058600D083D082F8E4937012740193700DA3A304
:1005960093F8740193F5828883E473740293686018
:0605A600EFA3A3A380DF18
:10001E00E517240BF8E60517227808300702780B4F
:10002E00E475F0011206040205AC2000EB7F2ED21F
:10003E00008018EF540F2490D43440D4FF30040BBA
:10004E00EF24BFB41A0050032461FFE518600215B7
:10005E0018051BE51B7002051A30070D7808E475AC
:10006E00F001120604EF0205F202072B7403D20709
:10007E008003E4C207F5178B088A09890AE4F5188C
:10008E00F51AF51BE51860077F2012005980F575EB
:10009E0019FFC201C200C202C203C205C206C208D3
:1000AE00120027FF700D3007057F0012006AAF1B8C
:1000BE00AE1A22B4255FC2D5C204120027FF24D087
:1000CE00B40A00501A75F00A781830D50508B6FF34
:1000DE000106C6A426F620D5047002D20380D924C8
:1000EE00CFB41A00EF5004C2E5D20402026AD20164
:1000FE0080C6D20080C0D20280BCD2D580BAD205D2
:10010E0080B47F201200592002077401B5180040F8
:10011E00F112001EFF120059020092D208D2068080
:10012E009512001EFB12001EFA12001EF94A4B70A9
:10013E0006793B7A037BFF20022EE518602A7E00AB
:10014E008E827583001205C560060EEE651970F07D
:10015E00C2D5EBC0E0EAC0E0E9C0E0EE1202B1D0D9
:10016E00E0F9D0E0FAD0E0FB1205ACFF60AAEBC0DC
:10017E00E0EAC0E0E9C0E0120059D0E02401F9D075
:10018E00E03400FAD0E0FBE5190460DCD519D98023
:10019E00877BFF7A0279ADD202809C79108002793A
:1001AE0008C206C2088008D2D5790A8004790AC22C
:1001BE00D5E519047002F519E4FAFDFEFF12001ED2
:1001CE00FC7B0820011312001EFD7B1030000A126A
:1001DE00001EFE12001EFF7B20EC3382D592D550FE
:1001EE0013C3E43000069FFFE49EFEE42001039D4E
:1001FE00FDE49CFCE4CBF8C201EC700CCFCECDCC70
:10020E00E824F8F870F38017C3EF33FFEE33FEEDFA
:10021E0033FDEC33FCEB33FB994002FB0FD8E9EBDB
:10022E00300105F8D0E0C448B201C0E00AEC4D4EF2
:10023E004F78207B0070C2EAB5190040BCC0E012B6
:10024E0002B3D0F0D0E0200104C4C0E0C4B201C0BB
:10025E00F0120042D0F0D5F0EB02009212058601AA
:10026E002F5301A95801004C00FC4201AD4F01B5BE
:0F027E004401B54901154301BB55019F46019F3E
:10028D0045019F47035B5001042D01082E012B2BC7
:10029D00010C2301292003442A00C4480000012336
:1002AD003F3F3F00790AA2D5200314300509B9104C
:1002BD00020404B9080104A2D5200602500104204D
:1002CD0002689202B518005034C0E07F2030031947
:1002DD007F30A20272067205500F12030AC202C2CB
:1002ED0006C205C2087F30800F300503E9C0E01259
:1002FD000059300503D0E0F9D0E0B518CC30051722
:10030D007F30B9100C1200597F583004077F788068
:10031D0003B908031200593002057F2D0200597FE1
:10032D00202008F87F2B2006F322920280CF286E22
:10033D00756C6C2900D20112001E3001F8C20178D3
:10034D001830D50108F60200C42D5043495812004B
:10035D001E2403B405004001E49003569312004A95
:0D036D00743A12004AD2037518040201A967
:1005AC00BB010689828A83E0225002E722BBFE024D
:0905BC00E32289828A83E4932280
:1005C500BB010CE58229F582E5833AF583E02250EB
:1005D50006E92582F8E622BBFE06E92582F8E22235
:0D05E500E58229F582E5833AF583E493224F
:1005F200BB010689828A83F0225002F722BBFE01E8
:02060200F322E1
:10060400FAE6FB0808E6F925F0F618E6CA3AF622F7
:10072B00EFB40A07740D120736740A309811A899A2
:10073B00B8130CC2983098FDA899C298B811F6302E
:07074B0099FDC299F5992206
:00000001FF
